{
  "_format": "hh-sol-artifact-1",
  "contractName": "CustomNFT",
  "sourceName": "contracts/CustomNFT.sol",
  "abi": [
    {
      "inputs": [],
      "stateMutability": "nonpayable",
      "type": "constructor"
    },
    {
      "inputs": [
        {
          "internalType": "address",
          "name": "sender",
          "type": "address"
        },
        {
          "internalType": "uint256",
          "name": "tokenId",
          "type": "uint256"
        },
        {
          "internalType": "address",
          "name": "owner",
          "type": "address"
        }
      ],
      "name": "ERC721IncorrectOwner",
      "type": "error"
    },
    {
      "inputs": [
        {
          "internalType": "address",
          "name": "operator",
          "type": "address"
        },
        {
          "internalType": "uint256",
          "name": "tokenId",
          "type": "uint256"
        }
      ],
      "name": "ERC721InsufficientApproval",
      "type": "error"
    },
    {
      "inputs": [
        {
          "internalType": "address",
          "name": "approver",
          "type": "address"
        }
      ],
      "name": "ERC721InvalidApprover",
      "type": "error"
    },
    {
      "inputs": [
        {
          "internalType": "address",
          "name": "operator",
          "type": "address"
        }
      ],
      "name": "ERC721InvalidOperator",
      "type": "error"
    },
    {
      "inputs": [
        {
          "internalType": "address",
          "name": "owner",
          "type": "address"
        }
      ],
      "name": "ERC721InvalidOwner",
      "type": "error"
    },
    {
      "inputs": [
        {
          "internalType": "address",
          "name": "receiver",
          "type": "address"
        }
      ],
      "name": "ERC721InvalidReceiver",
      "type": "error"
    },
    {
      "inputs": [
        {
          "internalType": "address",
          "name": "sender",
          "type": "address"
        }
      ],
      "name": "ERC721InvalidSender",
      "type": "error"
    },
    {
      "inputs": [
        {
          "internalType": "uint256",
          "name": "tokenId",
          "type": "uint256"
        }
      ],
      "name": "ERC721NonexistentToken",
      "type": "error"
    },
    {
      "anonymous": false,
      "inputs": [
        {
          "indexed": true,
          "internalType": "address",
          "name": "owner",
          "type": "address"
        },
        {
          "indexed": true,
          "internalType": "address",
          "name": "approved",
          "type": "address"
        },
        {
          "indexed": true,
          "internalType": "uint256",
          "name": "tokenId",
          "type": "uint256"
        }
      ],
      "name": "Approval",
      "type": "event"
    },
    {
      "anonymous": false,
      "inputs": [
        {
          "indexed": true,
          "internalType": "address",
          "name": "owner",
          "type": "address"
        },
        {
          "indexed": true,
          "internalType": "address",
          "name": "operator",
          "type": "address"
        },
        {
          "indexed": false,
          "internalType": "bool",
          "name": "approved",
          "type": "bool"
        }
      ],
      "name": "ApprovalForAll",
      "type": "event"
    },
    {
      "anonymous": false,
      "inputs": [
        {
          "components": [
            {
              "internalType": "uint256",
              "name": "tokenId",
              "type": "uint256"
            },
            {
              "internalType": "string",
              "name": "tokenUID",
              "type": "string"
            },
            {
              "internalType": "string",
              "name": "tokenURI",
              "type": "string"
            },
            {
              "internalType": "address",
              "name": "owner",
              "type": "address"
            },
            {
              "internalType": "uint256",
              "name": "price",
              "type": "uint256"
            }
          ],
          "indexed": false,
          "internalType": "struct Token",
          "name": "token",
          "type": "tuple"
        },
        {
          "indexed": false,
          "internalType": "address",
          "name": "buyer",
          "type": "address"
        }
      ],
      "name": "TokenBought",
      "type": "event"
    },
    {
      "anonymous": false,
      "inputs": [
        {
          "components": [
            {
              "internalType": "uint256",
              "name": "tokenId",
              "type": "uint256"
            },
            {
              "internalType": "string",
              "name": "tokenUID",
              "type": "string"
            },
            {
              "internalType": "string",
              "name": "tokenURI",
              "type": "string"
            },
            {
              "internalType": "address",
              "name": "owner",
              "type": "address"
            },
            {
              "internalType": "uint256",
              "name": "price",
              "type": "uint256"
            }
          ],
          "indexed": false,
          "internalType": "struct Token",
          "name": "token",
          "type": "tuple"
        }
      ],
      "name": "TokenMinted",
      "type": "event"
    },
    {
      "anonymous": false,
      "inputs": [
        {
          "indexed": true,
          "internalType": "address",
          "name": "from",
          "type": "address"
        },
        {
          "indexed": true,
          "internalType": "address",
          "name": "to",
          "type": "address"
        },
        {
          "indexed": true,
          "internalType": "uint256",
          "name": "tokenId",
          "type": "uint256"
        }
      ],
      "name": "Transfer",
      "type": "event"
    },
    {
      "inputs": [
        {
          "internalType": "address",
          "name": "to",
          "type": "address"
        },
        {
          "internalType": "uint256",
          "name": "tokenId",
          "type": "uint256"
        }
      ],
      "name": "approve",
      "outputs": [],
      "stateMutability": "nonpayable",
      "type": "function"
    },
    {
      "inputs": [
        {
          "internalType": "address",
          "name": "owner",
          "type": "address"
        }
      ],
      "name": "balanceOf",
      "outputs": [
        {
          "internalType": "uint256",
          "name": "",
          "type": "uint256"
        }
      ],
      "stateMutability": "view",
      "type": "function"
    },
    {
      "inputs": [
        {
          "internalType": "string",
          "name": "tokenUID",
          "type": "string"
        }
      ],
      "name": "buy",
      "outputs": [],
      "stateMutability": "payable",
      "type": "function"
    },
    {
      "inputs": [
        {
          "internalType": "uint256",
          "name": "tokenId",
          "type": "uint256"
        }
      ],
      "name": "getApproved",
      "outputs": [
        {
          "internalType": "address",
          "name": "",
          "type": "address"
        }
      ],
      "stateMutability": "view",
      "type": "function"
    },
    {
      "inputs": [
        {
          "internalType": "string",
          "name": "tokenUID",
          "type": "string"
        }
      ],
      "name": "getToken",
      "outputs": [
        {
          "components": [
            {
              "internalType": "uint256",
              "name": "tokenId",
              "type": "uint256"
            },
            {
              "internalType": "string",
              "name": "tokenUID",
              "type": "string"
            },
            {
              "internalType": "string",
              "name": "tokenURI",
              "type": "string"
            },
            {
              "internalType": "address",
              "name": "owner",
              "type": "address"
            },
            {
              "internalType": "uint256",
              "name": "price",
              "type": "uint256"
            }
          ],
          "internalType": "struct Token",
          "name": "",
          "type": "tuple"
        }
      ],
      "stateMutability": "view",
      "type": "function"
    },
    {
      "inputs": [
        {
          "internalType": "address",
          "name": "owner",
          "type": "address"
        },
        {
          "internalType": "address",
          "name": "operator",
          "type": "address"
        }
      ],
      "name": "isApprovedForAll",
      "outputs": [
        {
          "internalType": "bool",
          "name": "",
          "type": "bool"
        }
      ],
      "stateMutability": "view",
      "type": "function"
    },
    {
      "inputs": [
        {
          "internalType": "address",
          "name": "to",
          "type": "address"
        },
        {
          "internalType": "string",
          "name": "tokenURI",
          "type": "string"
        },
        {
          "internalType": "string",
          "name": "tokenUID",
          "type": "string"
        },
        {
          "internalType": "uint256",
          "name": "price",
          "type": "uint256"
        }
      ],
      "name": "mint",
      "outputs": [
        {
          "internalType": "uint256",
          "name": "",
          "type": "uint256"
        }
      ],
      "stateMutability": "nonpayable",
      "type": "function"
    },
    {
      "inputs": [],
      "name": "name",
      "outputs": [
        {
          "internalType": "string",
          "name": "",
          "type": "string"
        }
      ],
      "stateMutability": "view",
      "type": "function"
    },
    {
      "inputs": [
        {
          "internalType": "uint256",
          "name": "tokenId",
          "type": "uint256"
        }
      ],
      "name": "ownerOf",
      "outputs": [
        {
          "internalType": "address",
          "name": "",
          "type": "address"
        }
      ],
      "stateMutability": "view",
      "type": "function"
    },
    {
      "inputs": [
        {
          "internalType": "address",
          "name": "from",
          "type": "address"
        },
        {
          "internalType": "address",
          "name": "to",
          "type": "address"
        },
        {
          "internalType": "uint256",
          "name": "tokenId",
          "type": "uint256"
        }
      ],
      "name": "safeTransferFrom",
      "outputs": [],
      "stateMutability": "nonpayable",
      "type": "function"
    },
    {
      "inputs": [
        {
          "internalType": "address",
          "name": "from",
          "type": "address"
        },
        {
          "internalType": "address",
          "name": "to",
          "type": "address"
        },
        {
          "internalType": "uint256",
          "name": "tokenId",
          "type": "uint256"
        },
        {
          "internalType": "bytes",
          "name": "data",
          "type": "bytes"
        }
      ],
      "name": "safeTransferFrom",
      "outputs": [],
      "stateMutability": "nonpayable",
      "type": "function"
    },
    {
      "inputs": [
        {
          "internalType": "address",
          "name": "operator",
          "type": "address"
        },
        {
          "internalType": "bool",
          "name": "approved",
          "type": "bool"
        }
      ],
      "name": "setApprovalForAll",
      "outputs": [],
      "stateMutability": "nonpayable",
      "type": "function"
    },
    {
      "inputs": [
        {
          "internalType": "bytes4",
          "name": "interfaceId",
          "type": "bytes4"
        }
      ],
      "name": "supportsInterface",
      "outputs": [
        {
          "internalType": "bool",
          "name": "",
          "type": "bool"
        }
      ],
      "stateMutability": "view",
      "type": "function"
    },
    {
      "inputs": [],
      "name": "symbol",
      "outputs": [
        {
          "internalType": "string",
          "name": "",
          "type": "string"
        }
      ],
      "stateMutability": "view",
      "type": "function"
    },
    {
      "inputs": [
        {
          "internalType": "uint256",
          "name": "tokenId",
          "type": "uint256"
        }
      ],
      "name": "tokenURI",
      "outputs": [
        {
          "internalType": "string",
          "name": "",
          "type": "string"
        }
      ],
      "stateMutability": "view",
      "type": "function"
    },
    {
      "inputs": [
        {
          "internalType": "address",
          "name": "from",
          "type": "address"
        },
        {
          "internalType": "address",
          "name": "to",
          "type": "address"
        },
        {
          "internalType": "uint256",
          "name": "tokenId",
          "type": "uint256"
        }
      ],
      "name": "transferFrom",
      "outputs": [],
      "stateMutability": "nonpayable",
      "type": "function"
    }
  ],
  "bytecode": "0x60806040523480156200001157600080fd5b506040518060400160405280600981526020017f437573746f6d4e465400000000000000000000000000000000000000000000008152506040518060400160405280600481526020017f434e46540000000000000000000000000000000000000000000000000000000081525081600090816200008f919062000324565b508060019081620000a1919062000324565b5050506200040b565b600081519050919050565b7f4e487b7100000000000000000000000000000000000000000000000000000000600052604160045260246000fd5b7f4e487b7100000000000000000000000000000000000000000000000000000000600052602260045260246000fd5b600060028204905060018216806200012c57607f821691505b602082108103620001425762000141620000e4565b5b50919050565b60008190508160005260206000209050919050565b60006020601f8301049050919050565b600082821b905092915050565b600060088302620001ac7fffffffffffffffffffffffffffffffffffffffffffffffffffffffffffffffff826200016d565b620001b886836200016d565b95508019841693508086168417925050509392505050565b6000819050919050565b6000819050919050565b600062000205620001ff620001f984620001d0565b620001da565b620001d0565b9050919050565b6000819050919050565b6200022183620001e4565b6200023962000230826200020c565b8484546200017a565b825550505050565b600090565b6200025062000241565b6200025d81848462000216565b505050565b5b8181101562000285576200027960008262000246565b60018101905062000263565b5050565b601f821115620002d4576200029e8162000148565b620002a9846200015d565b81016020851015620002b9578190505b620002d1620002c8856200015d565b83018262000262565b50505b505050565b600082821c905092915050565b6000620002f960001984600802620002d9565b1980831691505092915050565b6000620003148383620002e6565b9150826002028217905092915050565b6200032f82620000aa565b67ffffffffffffffff8111156200034b576200034a620000b5565b5b62000357825462000113565b6200036482828562000289565b600060209050601f8311600181146200039c576000841562000387578287015190505b62000393858262000306565b86555062000403565b601f198416620003ac8662000148565b60005b82811015620003d657848901518255600182019150602085019450602081019050620003af565b86831015620003f65784890151620003f2601f891682620002e6565b8355505b6001600288020188555050505b505050505050565b612f08806200041b6000396000f3fe6080604052600436106100f35760003560e01c806370a082311161008a578063b88d4fde11610059578063b88d4fde1461033f578063c1733f6814610368578063c87b56dd146103a5578063e985e9c5146103e2576100f3565b806370a0823114610271578063853d42ad146102ae57806395d89b41146102eb578063a22cb46514610316576100f3565b806323b872dd116100c657806323b872dd146101c657806342842e0e146101ef578063492cc769146102185780636352211e14610234576100f3565b806301ffc9a7146100f857806306fdde0314610135578063081812fc14610160578063095ea7b31461019d575b600080fd5b34801561010457600080fd5b5061011f600480360381019061011a9190611e66565b61041f565b60405161012c9190611eae565b60405180910390f35b34801561014157600080fd5b5061014a610501565b6040516101579190611f59565b60405180910390f35b34801561016c57600080fd5b5061018760048036038101906101829190611fb1565b610593565b604051610194919061201f565b60405180910390f35b3480156101a957600080fd5b506101c460048036038101906101bf9190612066565b6105af565b005b3480156101d257600080fd5b506101ed60048036038101906101e891906120a6565b6105c5565b005b3480156101fb57600080fd5b50610216600480360381019061021191906120a6565b6106c7565b005b610232600480360381019061022d919061222e565b6106e7565b005b34801561024057600080fd5b5061025b60048036038101906102569190611fb1565b610944565b604051610268919061201f565b60405180910390f35b34801561027d57600080fd5b5061029860048036038101906102939190612277565b610956565b6040516102a591906122b3565b60405180910390f35b3480156102ba57600080fd5b506102d560048036038101906102d091906122ce565b610a10565b6040516102e291906122b3565b60405180910390f35b3480156102f757600080fd5b50610300610b7f565b60405161030d9190611f59565b60405180910390f35b34801561032257600080fd5b5061033d60048036038101906103389190612399565b610c11565b005b34801561034b57600080fd5b506103666004803603810190610361919061247a565b610c27565b005b34801561037457600080fd5b5061038f600480360381019061038a919061222e565b610c44565b60405161039c91906125e2565b60405180910390f35b3480156103b157600080fd5b506103cc60048036038101906103c79190611fb1565b610e0a565b6040516103d99190611f59565b60405180910390f35b3480156103ee57600080fd5b5061040960048036038101906104049190612604565b610e73565b6040516104169190611eae565b60405180910390f35b60007f80ac58cd000000000000000000000000000000000000000000000000000000007bffffffffffffffffffffffffffffffffffffffffffffffffffffffff1916827bffffffffffffffffffffffffffffffffffffffffffffffffffffffff191614806104ea57507f5b5e139f000000000000000000000000000000000000000000000000000000007bffffffffffffffffffffffffffffffffffffffffffffffffffffffff1916827bffffffffffffffffffffffffffffffffffffffffffffffffffffffff1916145b806104fa57506104f982610f07565b5b9050919050565b60606000805461051090612673565b80601f016020809104026020016040519081016040528092919081815260200182805461053c90612673565b80156105895780601f1061055e57610100808354040283529160200191610589565b820191906000526020600020905b81548152906001019060200180831161056c57829003601f168201915b5050505050905090565b600061059e82610f71565b506105a882610ff9565b9050919050565b6105c182826105bc611036565b61103e565b5050565b600073ffffffffffffffffffffffffffffffffffffffff168273ffffffffffffffffffffffffffffffffffffffff16036106375760006040517f64a0ae9200000000000000000000000000000000000000000000000000000000815260040161062e919061201f565b60405180910390fd5b600061064b8383610646611036565b611050565b90508373ffffffffffffffffffffffffffffffffffffffff168173ffffffffffffffffffffffffffffffffffffffff16146106c1578382826040517f64283d7b0000000000000000000000000000000000000000000000000000000081526004016106b8939291906126a4565b60405180910390fd5b50505050565b6106e283838360405180602001604052806000815250610c27565b505050565b60006006826040516106f99190612717565b908152602001604051809103902060030160009054906101000a900473ffffffffffffffffffffffffffffffffffffffff1690503373ffffffffffffffffffffffffffffffffffffffff168173ffffffffffffffffffffffffffffffffffffffff160361079b576040517f08c379a0000000000000000000000000000000000000000000000000000000008152600401610792906127a0565b60405180910390fd5b6006826040516107ab9190612717565b9081526020016040518091039020600401543410156107ff576040517f08c379a00000000000000000000000000000000000000000000000000000000081526004016107f69061280c565b60405180910390fd5b7fbfffc38fa639a05786a5382e3a25853d20e6fdee4a827d3e8d5092a5652daf7f6006836040516108309190612717565b90815260200160405180910390203360405161084d9291906129ce565b60405180910390a18073ffffffffffffffffffffffffffffffffffffffff166108fc6064605f3461087e9190612a2d565b6108889190612a9e565b9081150290604051600060405180830381858888f193505050501580156108b3573d6000803e3d6000fd5b506108e081336006856040516108c99190612717565b90815260200160405180910390206000015461126a565b336006836040516108f19190612717565b908152602001604051809103902060030160006101000a81548173ffffffffffffffffffffffffffffffffffffffff021916908373ffffffffffffffffffffffffffffffffffffffff1602179055505050565b600061094f82610f71565b9050919050565b60008073ffffffffffffffffffffffffffffffffffffffff168273ffffffffffffffffffffffffffffffffffffffff16036109c95760006040517f89c62b640000000000000000000000000000000000000000000000000000000081526004016109c0919061201f565b60405180910390fd5b600360008373ffffffffffffffffffffffffffffffffffffffff1673ffffffffffffffffffffffffffffffffffffffff168152602001908152602001600020549050919050565b6000806007549050610a2286826113d7565b6040518060a001604052808281526020018681526020018581526020018773ffffffffffffffffffffffffffffffffffffffff16815260200184815250600685604051610a6f9190612717565b9081526020016040518091039020600082015181600001556020820151816001019081610a9c9190612c66565b506040820151816002019081610ab29190612c66565b5060608201518160030160006101000a81548173ffffffffffffffffffffffffffffffffffffffff021916908373ffffffffffffffffffffffffffffffffffffffff1602179055506080820151816004015590505060076000815480929190610b1a90612d38565b91905055507f2f1b9d814f0b41d6736e8d47daab6782af91a5ccf191390db0456017d9917da2600685604051610b509190612717565b9081526020016040518091039020604051610b6b9190612d80565b60405180910390a180915050949350505050565b606060018054610b8e90612673565b80601f0160208091040260200160405190810160405280929190818152602001828054610bba90612673565b8015610c075780601f10610bdc57610100808354040283529160200191610c07565b820191906000526020600020905b815481529060010190602001808311610bea57829003601f168201915b5050505050905090565b610c23610c1c611036565b83836114d0565b5050565b610c328484846105c5565b610c3e8484848461163f565b50505050565b610c4c611db5565b600682604051610c5c9190612717565b90815260200160405180910390206040518060a001604052908160008201548152602001600182018054610c8f90612673565b80601f0160208091040260200160405190810160405280929190818152602001828054610cbb90612673565b8015610d085780601f10610cdd57610100808354040283529160200191610d08565b820191906000526020600020905b815481529060010190602001808311610ceb57829003601f168201915b50505050508152602001600282018054610d2190612673565b80601f0160208091040260200160405190810160405280929190818152602001828054610d4d90612673565b8015610d9a5780601f10610d6f57610100808354040283529160200191610d9a565b820191906000526020600020905b815481529060010190602001808311610d7d57829003601f168201915b505050505081526020016003820160009054906101000a900473ffffffffffffffffffffffffffffffffffffffff1673ffffffffffffffffffffffffffffffffffffffff1673ffffffffffffffffffffffffffffffffffffffff1681526020016004820154815250509050919050565b6060610e1582610f71565b506000610e206117f6565b90506000815111610e405760405180602001604052806000815250610e6b565b80610e4a8461180d565b604051602001610e5b929190612da2565b6040516020818303038152906040525b915050919050565b6000600560008473ffffffffffffffffffffffffffffffffffffffff1673ffffffffffffffffffffffffffffffffffffffff16815260200190815260200160002060008373ffffffffffffffffffffffffffffffffffffffff1673ffffffffffffffffffffffffffffffffffffffff16815260200190815260200160002060009054906101000a900460ff16905092915050565b60007f01ffc9a7000000000000000000000000000000000000000000000000000000007bffffffffffffffffffffffffffffffffffffffffffffffffffffffff1916827bffffffffffffffffffffffffffffffffffffffffffffffffffffffff1916149050919050565b600080610f7d836118db565b9050600073ffffffffffffffffffffffffffffffffffffffff168173ffffffffffffffffffffffffffffffffffffffff1603610ff057826040517f7e273289000000000000000000000000000000000000000000000000000000008152600401610fe791906122b3565b60405180910390fd5b80915050919050565b60006004600083815260200190815260200160002060009054906101000a900473ffffffffffffffffffffffffffffffffffffffff169050919050565b600033905090565b61104b8383836001611918565b505050565b60008061105c846118db565b9050600073ffffffffffffffffffffffffffffffffffffffff168373ffffffffffffffffffffffffffffffffffffffff161461109e5761109d818486611add565b5b600073ffffffffffffffffffffffffffffffffffffffff168173ffffffffffffffffffffffffffffffffffffffff161461112f576110e0600085600080611918565b6001600360008373ffffffffffffffffffffffffffffffffffffffff1673ffffffffffffffffffffffffffffffffffffffff168152602001908152602001600020600082825403925050819055505b600073ffffffffffffffffffffffffffffffffffffffff168573ffffffffffffffffffffffffffffffffffffffff16146111b2576001600360008773ffffffffffffffffffffffffffffffffffffffff1673ffffffffffffffffffffffffffffffffffffffff168152602001908152602001600020600082825401925050819055505b846002600086815260200190815260200160002060006101000a81548173ffffffffffffffffffffffffffffffffffffffff021916908373ffffffffffffffffffffffffffffffffffffffff160217905550838573ffffffffffffffffffffffffffffffffffffffff168273ffffffffffffffffffffffffffffffffffffffff167fddf252ad1be2c89b69c2b068fc378daa952ba7f163c4a11628f55a4df523b3ef60405160405180910390a4809150509392505050565b600073ffffffffffffffffffffffffffffffffffffffff168273ffffffffffffffffffffffffffffffffffffffff16036112dc5760006040517f64a0ae920000000000000000000000000000000000000000000000000000000081526004016112d3919061201f565b60405180910390fd5b60006112ea83836000611050565b9050600073ffffffffffffffffffffffffffffffffffffffff168173ffffffffffffffffffffffffffffffffffffffff160361135d57816040517f7e27328900000000000000000000000000000000000000000000000000000000815260040161135491906122b3565b60405180910390fd5b8373ffffffffffffffffffffffffffffffffffffffff168173ffffffffffffffffffffffffffffffffffffffff16146113d1578382826040517f64283d7b0000000000000000000000000000000000000000000000000000000081526004016113c8939291906126a4565b60405180910390fd5b50505050565b600073ffffffffffffffffffffffffffffffffffffffff168273ffffffffffffffffffffffffffffffffffffffff16036114495760006040517f64a0ae92000000000000000000000000000000000000000000000000000000008152600401611440919061201f565b60405180910390fd5b600061145783836000611050565b9050600073ffffffffffffffffffffffffffffffffffffffff168173ffffffffffffffffffffffffffffffffffffffff16146114cb5760006040517f73c6ac6e0000000000000000000000000000000000000000000000000000000081526004016114c2919061201f565b60405180910390fd5b505050565b600073ffffffffffffffffffffffffffffffffffffffff168273ffffffffffffffffffffffffffffffffffffffff160361154157816040517f5b08ba18000000000000000000000000000000000000000000000000000000008152600401611538919061201f565b60405180910390fd5b80600560008573ffffffffffffffffffffffffffffffffffffffff1673ffffffffffffffffffffffffffffffffffffffff16815260200190815260200160002060008473ffffffffffffffffffffffffffffffffffffffff1673ffffffffffffffffffffffffffffffffffffffff16815260200190815260200160002060006101000a81548160ff0219169083151502179055508173ffffffffffffffffffffffffffffffffffffffff168373ffffffffffffffffffffffffffffffffffffffff167f17307eab39ab6107e8899845ad3d59bd9653f200f220920489ca2b5937696c31836040516116329190611eae565b60405180910390a3505050565b60008373ffffffffffffffffffffffffffffffffffffffff163b11156117f0578273ffffffffffffffffffffffffffffffffffffffff1663150b7a02611683611036565b8685856040518563ffffffff1660e01b81526004016116a59493929190612e1b565b6020604051808303816000875af19250505080156116e157506040513d601f19601f820116820180604052508101906116de9190612e7c565b60015b611765573d8060008114611711576040519150601f19603f3d011682016040523d82523d6000602084013e611716565b606091505b50600081510361175d57836040517f64a0ae92000000000000000000000000000000000000000000000000000000008152600401611754919061201f565b60405180910390fd5b805181602001fd5b63150b7a0260e01b7bffffffffffffffffffffffffffffffffffffffffffffffffffffffff1916817bffffffffffffffffffffffffffffffffffffffffffffffffffffffff1916146117ee57836040517f64a0ae920000000000000000000000000000000000000000000000000000000081526004016117e5919061201f565b60405180910390fd5b505b50505050565b606060405180602001604052806000815250905090565b60606000600161181c84611ba1565b01905060008167ffffffffffffffff81111561183b5761183a612103565b5b6040519080825280601f01601f19166020018201604052801561186d5781602001600182028036833780820191505090505b509050600082602001820190505b6001156118d0578080600190039150507f3031323334353637383961626364656600000000000000000000000000000000600a86061a8153600a85816118c4576118c3612a6f565b5b0494506000850361187b575b819350505050919050565b60006002600083815260200190815260200160002060009054906101000a900473ffffffffffffffffffffffffffffffffffffffff169050919050565b80806119515750600073ffffffffffffffffffffffffffffffffffffffff168273ffffffffffffffffffffffffffffffffffffffff1614155b15611a8557600061196184610f71565b9050600073ffffffffffffffffffffffffffffffffffffffff168373ffffffffffffffffffffffffffffffffffffffff16141580156119cc57508273ffffffffffffffffffffffffffffffffffffffff168173ffffffffffffffffffffffffffffffffffffffff1614155b80156119df57506119dd8184610e73565b155b15611a2157826040517fa9fbf51f000000000000000000000000000000000000000000000000000000008152600401611a18919061201f565b60405180910390fd5b8115611a8357838573ffffffffffffffffffffffffffffffffffffffff168273ffffffffffffffffffffffffffffffffffffffff167f8c5be1e5ebec7d5bd14f71427d1e84f3dd0314c0f7b2291e5b200ac8c7c3b92560405160405180910390a45b505b836004600085815260200190815260200160002060006101000a81548173ffffffffffffffffffffffffffffffffffffffff021916908373ffffffffffffffffffffffffffffffffffffffff16021790555050505050565b611ae8838383611cf4565b611b9c57600073ffffffffffffffffffffffffffffffffffffffff168373ffffffffffffffffffffffffffffffffffffffff1603611b5d57806040517f7e273289000000000000000000000000000000000000000000000000000000008152600401611b5491906122b3565b60405180910390fd5b81816040517f177e802f000000000000000000000000000000000000000000000000000000008152600401611b93929190612ea9565b60405180910390fd5b505050565b600080600090507a184f03e93ff9f4daa797ed6e38ed64bf6a1f0100000000000000008310611bff577a184f03e93ff9f4daa797ed6e38ed64bf6a1f0100000000000000008381611bf557611bf4612a6f565b5b0492506040810190505b6d04ee2d6d415b85acef81000000008310611c3c576d04ee2d6d415b85acef81000000008381611c3257611c31612a6f565b5b0492506020810190505b662386f26fc100008310611c6b57662386f26fc100008381611c6157611c60612a6f565b5b0492506010810190505b6305f5e1008310611c94576305f5e1008381611c8a57611c89612a6f565b5b0492506008810190505b6127108310611cb9576127108381611caf57611cae612a6f565b5b0492506004810190505b60648310611cdc5760648381611cd257611cd1612a6f565b5b0492506002810190505b600a8310611ceb576001810190505b80915050919050565b60008073ffffffffffffffffffffffffffffffffffffffff168373ffffffffffffffffffffffffffffffffffffffff1614158015611dac57508273ffffffffffffffffffffffffffffffffffffffff168473ffffffffffffffffffffffffffffffffffffffff161480611d6d5750611d6c8484610e73565b5b80611dab57508273ffffffffffffffffffffffffffffffffffffffff16611d9383610ff9565b73ffffffffffffffffffffffffffffffffffffffff16145b5b90509392505050565b6040518060a00160405280600081526020016060815260200160608152602001600073ffffffffffffffffffffffffffffffffffffffff168152602001600081525090565b6000604051905090565b600080fd5b600080fd5b60007fffffffff0000000000000000000000000000000000000000000000000000000082169050919050565b611e4381611e0e565b8114611e4e57600080fd5b50565b600081359050611e6081611e3a565b92915050565b600060208284031215611e7c57611e7b611e04565b5b6000611e8a84828501611e51565b91505092915050565b60008115159050919050565b611ea881611e93565b82525050565b6000602082019050611ec36000830184611e9f565b92915050565b600081519050919050565b600082825260208201905092915050565b60005b83811015611f03578082015181840152602081019050611ee8565b60008484015250505050565b6000601f19601f8301169050919050565b6000611f2b82611ec9565b611f358185611ed4565b9350611f45818560208601611ee5565b611f4e81611f0f565b840191505092915050565b60006020820190508181036000830152611f738184611f20565b905092915050565b6000819050919050565b611f8e81611f7b565b8114611f9957600080fd5b50565b600081359050611fab81611f85565b92915050565b600060208284031215611fc757611fc6611e04565b5b6000611fd584828501611f9c565b91505092915050565b600073ffffffffffffffffffffffffffffffffffffffff82169050919050565b600061200982611fde565b9050919050565b61201981611ffe565b82525050565b60006020820190506120346000830184612010565b92915050565b61204381611ffe565b811461204e57600080fd5b50565b6000813590506120608161203a565b92915050565b6000806040838503121561207d5761207c611e04565b5b600061208b85828601612051565b925050602061209c85828601611f9c565b9150509250929050565b6000806000606084860312156120bf576120be611e04565b5b60006120cd86828701612051565b93505060206120de86828701612051565b92505060406120ef86828701611f9c565b9150509250925092565b600080fd5b600080fd5b7f4e487b7100000000000000000000000000000000000000000000000000000000600052604160045260246000fd5b61213b82611f0f565b810181811067ffffffffffffffff8211171561215a57612159612103565b5b80604052505050565b600061216d611dfa565b90506121798282612132565b919050565b600067ffffffffffffffff82111561219957612198612103565b5b6121a282611f0f565b9050602081019050919050565b82818337600083830152505050565b60006121d16121cc8461217e565b612163565b9050828152602081018484840111156121ed576121ec6120fe565b5b6121f88482856121af565b509392505050565b600082601f830112612215576122146120f9565b5b81356122258482602086016121be565b91505092915050565b60006020828403121561224457612243611e04565b5b600082013567ffffffffffffffff81111561226257612261611e09565b5b61226e84828501612200565b91505092915050565b60006020828403121561228d5761228c611e04565b5b600061229b84828501612051565b91505092915050565b6122ad81611f7b565b82525050565b60006020820190506122c860008301846122a4565b92915050565b600080600080608085870312156122e8576122e7611e04565b5b60006122f687828801612051565b945050602085013567ffffffffffffffff81111561231757612316611e09565b5b61232387828801612200565b935050604085013567ffffffffffffffff81111561234457612343611e09565b5b61235087828801612200565b925050606061236187828801611f9c565b91505092959194509250565b61237681611e93565b811461238157600080fd5b50565b6000813590506123938161236d565b92915050565b600080604083850312156123b0576123af611e04565b5b60006123be85828601612051565b92505060206123cf85828601612384565b9150509250929050565b600067ffffffffffffffff8211156123f4576123f3612103565b5b6123fd82611f0f565b9050602081019050919050565b600061241d612418846123d9565b612163565b905082815260208101848484011115612439576124386120fe565b5b6124448482856121af565b509392505050565b600082601f830112612461576124606120f9565b5b813561247184826020860161240a565b91505092915050565b6000806000806080858703121561249457612493611e04565b5b60006124a287828801612051565b94505060206124b387828801612051565b93505060406124c487828801611f9c565b925050606085013567ffffffffffffffff8111156124e5576124e4611e09565b5b6124f18782880161244c565b91505092959194509250565b61250681611f7b565b82525050565b600082825260208201905092915050565b600061252882611ec9565b612532818561250c565b9350612542818560208601611ee5565b61254b81611f0f565b840191505092915050565b61255f81611ffe565b82525050565b600060a08301600083015161257d60008601826124fd565b5060208301518482036020860152612595828261251d565b915050604083015184820360408601526125af828261251d565b91505060608301516125c46060860182612556565b5060808301516125d760808601826124fd565b508091505092915050565b600060208201905081810360008301526125fc8184612565565b905092915050565b6000806040838503121561261b5761261a611e04565b5b600061262985828601612051565b925050602061263a85828601612051565b9150509250929050565b7f4e487b7100000000000000000000000000000000000000000000000000000000600052602260045260246000fd5b6000600282049050600182168061268b57607f821691505b60208210810361269e5761269d612644565b5b50919050565b60006060820190506126b96000830186612010565b6126c660208301856122a4565b6126d36040830184612010565b949350505050565b600081905092915050565b60006126f182611ec9565b6126fb81856126db565b935061270b818560208601611ee5565b80840191505092915050565b600061272382846126e6565b915081905092915050565b7f437573746f6d4e46543a206f776e65722063616e6e6f7420627579206f776e2060008201527f746f6b656e000000000000000000000000000000000000000000000000000000602082015250565b600061278a602583611ed4565b91506127958261272e565b604082019050919050565b600060208201905081810360008301526127b98161277d565b9050919050565b7f437573746f6d4e46543a20696e73756666696369656e742066756e6473000000600082015250565b60006127f6601d83611ed4565b9150612801826127c0565b602082019050919050565b60006020820190508181036000830152612825816127e9565b9050919050565b60008160001c9050919050565b6000819050919050565b60006128566128518361282c565b612839565b9050919050565b60008190508160005260206000209050919050565b6000815461287f81612673565b612889818661250c565b945060018216600081146128a457600181146128ba576128ed565b60ff1983168652811515602002860193506128ed565b6128c38561285d565b60005b838110156128e5578154818901526001820191506020810190506128c6565b808801955050505b50505092915050565b600073ffffffffffffffffffffffffffffffffffffffff82169050919050565b60006129296129248361282c565b6128f6565b9050919050565b600060a08301600080840154905061294781612843565b61295460008701826124fd565b5060018401858303602087015261296b8382612872565b9250506002840185830360408701526129848382612872565b9250506003840154905061299781612916565b6129a46060870182612556565b50600484015490506129b581612843565b6129c260808701826124fd565b50819250505092915050565b600060408201905081810360008301526129e88185612930565b90506129f76020830184612010565b9392505050565b7f4e487b7100000000000000000000000000000000000000000000000000000000600052601160045260246000fd5b6000612a3882611f7b565b9150612a4383611f7b565b9250828202612a5181611f7b565b91508282048414831517612a6857612a676129fe565b5b5092915050565b7f4e487b7100000000000000000000000000000000000000000000000000000000600052601260045260246000fd5b6000612aa982611f7b565b9150612ab483611f7b565b925082612ac457612ac3612a6f565b5b828204905092915050565b60006020601f8301049050919050565b600082821b905092915050565b600060088302612b1c7fffffffffffffffffffffffffffffffffffffffffffffffffffffffffffffffff82612adf565b612b268683612adf565b95508019841693508086168417925050509392505050565b6000819050919050565b6000612b63612b5e612b5984611f7b565b612b3e565b611f7b565b9050919050565b6000819050919050565b612b7d83612b48565b612b91612b8982612b6a565b848454612aec565b825550505050565b600090565b612ba6612b99565b612bb1818484612b74565b505050565b5b81811015612bd557612bca600082612b9e565b600181019050612bb7565b5050565b601f821115612c1a57612beb8161285d565b612bf484612acf565b81016020851015612c03578190505b612c17612c0f85612acf565b830182612bb6565b50505b505050565b600082821c905092915050565b6000612c3d60001984600802612c1f565b1980831691505092915050565b6000612c568383612c2c565b9150826002028217905092915050565b612c6f82611ec9565b67ffffffffffffffff811115612c8857612c87612103565b5b612c928254612673565b612c9d828285612bd9565b600060209050601f831160018114612cd05760008415612cbe578287015190505b612cc88582612c4a565b865550612d30565b601f198416612cde8661285d565b60005b82811015612d0657848901518255600182019150602085019450602081019050612ce1565b86831015612d235784890151612d1f601f891682612c2c565b8355505b6001600288020188555050505b505050505050565b6000612d4382611f7b565b91507fffffffffffffffffffffffffffffffffffffffffffffffffffffffffffffffff8203612d7557612d746129fe565b5b600182019050919050565b60006020820190508181036000830152612d9a8184612930565b905092915050565b6000612dae82856126e6565b9150612dba82846126e6565b91508190509392505050565b600081519050919050565b600082825260208201905092915050565b6000612ded82612dc6565b612df78185612dd1565b9350612e07818560208601611ee5565b612e1081611f0f565b840191505092915050565b6000608082019050612e306000830187612010565b612e3d6020830186612010565b612e4a60408301856122a4565b8181036060830152612e5c8184612de2565b905095945050505050565b600081519050612e7681611e3a565b92915050565b600060208284031215612e9257612e91611e04565b5b6000612ea084828501612e67565b91505092915050565b6000604082019050612ebe6000830185612010565b612ecb60208301846122a4565b939250505056fea2646970667358221220cf8a2dc4ee1c6353b01d651ba8ca37ae5eeb8dd857e14472275c47d35c5b20fc64736f6c63430008180033",
  "linkReferences": {},
  "deployedLinkReferences": {}
}